:020000040800F2
:10000000B80B002065020008AF580008F90D000881
:10001000AB580008ED090008E36500080000000087
:10002000000000000000000000000000155F000854
:10003000750A000800000000355900082960000812
:100040007F0200087F0200087F0200087F0200088C
:100050007F0200087F0200087F0200087F0200087C
:100060007F0200087F0200087F0200087F0200086C
:100070007F0200087F0200087F0200087F0200085C
:100080007F0200087F0200087F0200087F0200084C
:100090007F0200087F0200087F0200087F0200083C
:1000A0007F0200087F0200087F0200087F0200082C
:1000B0007F0200088D600008F16100087F020008DF
:1000C0007F0200087F0200087F0200087F0200080C
:1000D0007F020008A16300087F0200087F02000879
:1000E0007F0200087F0200087F0200087F020008EC
:1000F0007F0200087F0200087F0200087F020008DC
:100100007F0200087F0200087F0200087F020008CB
:100110007F0200087F0200087F0200087F020008BB
:100120007F0200087F0200087F0200087F020008AB
:1001300000F002F800F06DF80AA090E8000C82448C
:100140008344AAF10107DA4501D100F062F8AFF269
:10015000090EBAE80F0013F0010F18BFFB1A43F0A5
:1001600001031847D8E50000F8E500000A444FF005
:10017000000C10F8013B13F0070408BF10F8014B06
:100180001D1108BF10F8015B641E05D010F8016B4B
:10019000641E01F8016BF9D113F0080F1EBF10F8AF
:1001A000014BAD1C0C1B09D16D1E58BF01F801CBD2
:1001B000FAD505E014F8016B01F8016B6D1EF9D555
:1001C0009142D6D37047000000230024002500266A
:1001D000103A28BF78C1FBD8520728BF30C148BFAA
:1001E0000B607047642900F0DF80752900F0DC8027
:1001F000782900F01581632900F03D83732900F010
:100200004283002070471FB500F00FFA1FBD10B5E4
:1002100010BD00F0BDFB1146FFF7F5FF07F0A4FF8E
:1002200000F0DBFB03B4FFF7F2FF03BC06F05FFA5C
:100230000B49D1F800C04A685CF8043B10681844C8
:1002400042F8040B8C4528BFA1F1DC0C8A4228BF80
:10025000A1F1DC02C1F800C04A6020F00040704704
:10026000500500200948804709480047FEE7FEE79F
:10027000FEE7FEE7FEE7FEE7FEE7FEE7FEE7FEE756
:1002800004480549054A064B704700002D600008E8
:1002900031010008B8050020B80B0020B807002085
:1002A000B8070020704710B54C1084EA530404D5F9
:1002B0004042C1F1000138BF491E1B4204D55242E1
:1002C000C3F1000338BF5B1E00F0F0F914F0804F5B
:1002D00004D04042C1F1000138BF491E14F0004F64
:1002E00004D05242C3F1000338BF5B1E10BD0000B2
:1002F0000FB4044910B503AA029800F0C9FA10BC63
:100300005DF814FB9800002070B50446856900680C
:10031000C10601D5302600E02026C00707D070BDF9
:10032000D4E9012130469047206A401C20626D1EAE
:10033000F6D570BD70B5044685690078C00707D151
:1003400070BDD4E9012120209047206A401C206222
:100350006D1EF6D570BD70B50C460546012A05D058
:100360002878800600D5EA69002302E0012305E031
:100370005B1C934202D2E05C0028F9D1A869E61820
:10038000C01AA861286A184428622846FFF7BCFFF3
:1003900004E0D5E9012114F8010B9047B442F8D3E9
:1003A0002846FFF7C7FF70BD2DE9F041064600243F
:1003B00010687529314616A510D0AFF300800028CB
:1003C00002DA404213A507E031688A0701D512A579
:1003D00002E0490704D511A5012401E0AFF3008034
:1003E00000210A2206F1240709E0B0FBF2FCB0FB71
:1003F000F2F302FB1C00303078541846491C0028E8
:10040000F3D123462A463046BDE8F04100F0D0B98A
:10041000000000002D0000002B0000002000000064
:1004200070B504460D4621461068AFF30080218860
:10043000090502D50F4A7A4402E00E4A7A440E3288
:10044000002104F1240305E000F00F060009965D89
:100450005E54491C0028F7D120780023000704D5FA
:10046000702D02D009B1022311322046BDE8704040
:1004700000F09EB994E000002DE9F05F8946044643
:100480004FF0000ADFF874B1FB44C0F820A020460A
:10049000E1688847002874D0252806D0D4E90121D6
:1004A0009047206A401C2062F1E700265F46204604
:1004B000E16888472028054607DB312D05D27819E9
:1004C00010F8200C08B10643F1E7B00701D526F07B
:1004D0000406C4F81CA00027C4F818A02A2D09D0CF
:1004E000284606F0FDF838B304EB8708303DC8F81D
:1004F000185019E059F8041B204604EB870291615B
:10050000E1688847012F054618D1E069002820DA04
:1005100026F020061DE0D8F8180000EB800005EB5F
:1005200040003038C8F818002046E1688847054682
:1005300006F0D6F80028EED1012F0AD02E2D08D1D2
:100540002046E16888477F1C0546022F46F02006BA
:10055000C4DBA069002803DA404246F00106A0612E
:10056000F00701D026F010066C2D0BD0682D09D0B5
:100570004C2D39D06A2D35D0742D35D07A2D33D00D
:1005800016E038E0E1682F4620468847B842054625
:1005900009D16C2F26D04FF48060E16806432046D5
:1005A0008847054604E06C2F1AD04FF4807006434C
:1005B0000DB3A5F14100192802D8203546F4006694
:1005C0004A462946204626604E46FFF70BFE80B17C
:1005D00001280BD0F61D26F0070000F1080956E7A8
:1005E0004020E4E78020D8E70020D6E706F10409A0
:1005F0004DE7284652E7206ABDE8F09F6AE0000018
:100600000B4910B5A1F17C020A4CC2E9371237211F
:1006100006E000EB104342F82130074B00FB03409B
:100620000B1EA1F10101F4DC10BD0120E8E7000080
:10063000F0040020E119D666CD0D010040EA010367
:1006400010B59B070FD1042A0DD310C808C9121F7B
:100650009C42F8D020BA19BA884201D9012010BDB5
:100660004FF0FF3010BD1AB1D30703D0521C07E082
:10067000002010BD10F8013B11F8014B1B1B07D1E6
:1006800010F8013B11F8014B1B1B01D1921EF1D157
:10069000184610BD02F0FF0343EA032242EA024279
:1006A00000F00AB9704770477047704753EA020C70
:1006B00000F069802DE9F04B4FF00006002B1FBFC2
:1006C000B3FA83F503FA05F424FA05F65E4012BF87
:1006D0001643B2FA82F502FA05F4C5F120051EBFF1
:1006E00022FA05FC44EA0C04203556EA044C4FEA91
:1006F000144418BF641C4FF000084FF000099042EA
:1007000071EB030C39D3002919BFB1FA81F701FA53
:1007100007F6B0FA80F700FA07F6C7F120071EBF08
:1007200020FA07FC46EA0C062037B6FBF4FCA7EBE0
:100730000507103F07F01F0BCBF120060CFA0BFB4F
:100740002CFA06F644BFB3460026202FA4BF5E460F
:100750004FF0000B5BEA060C08BF4FF0010B19EBE2
:100760000B09ABFB027C48EB0608C01B06FB02CC66
:100770000BFB03CC71EB0C01C1E70B460246414673
:100780004846BDE8F08B13B54FF000004FF0000174
:10079000AFF30080BDE81C40704710B500F0ACF826
:1007A000006810BD10B5044600F0A6F8046010BD46
:1007B0002DE9F0470D4699469246044600F124087B
:1007C0000168880604D5E06921F01001216000E08D
:1007D0000120A84201DD471B00E00027A1697A192A
:1007E00002EB0900081AA0612078C00602D4204656
:1007F000FFF78AFD002608E0D4E901211AF8060077
:100800009047206A401C761C20624E45F4DB20781D
:10081000C0060AD52046FFF777FD06E0D4E901219E
:1008200030209047206A401C2062381EA7F1010743
:10083000F4DC07E0D4E9012118F805009047206AAC
:10084000401C2062281EA5F10105F3DC2046FFF7BD
:1008500071FD2078000602D50220BDE8F087012056
:10086000FBE710B5436913B1AFF3008001E0FFF778
:1008700072FD012010BD127800F124010A700022DF
:100880004A700122EDE711684FF0FF32E9E70000FE
:10089000074B70B50D467B4400F037F804462846F8
:1008A00000F046F810B14FF0FF3070BD204670BD2B
:1008B000077200004FF000020429C0F0128010F00F
:1008C000030C00F03B80CCF1040CBCF1020F18BF0C
:1008D00000F8012BA8BF20F8022BA1EB0C0100F0BF
:1008E0002DB85FEAC17C24BF00F8012B00F8012B72
:1008F00048BF00F8012B704700487047580500209A
:1009000001694A1C02610878704700B58FB0CDE9D3
:1009100001310021059105497944CDE903101146C3
:100920006846FFF7A9FD0FB000BD0000E5FFFFFF1F
:10093000007B00F0800070474FF0000200B51346C6
:1009400094469646203922BFA0E80C50A0E80C50EF
:10095000B1F12001BFF4F7AF090728BFA0E80C50A0
:1009600048BF0CC05DF804EB890028BF40F8042B99
:1009700008BF704748BF20F8022B11F0804F18BF06
:1009800000F8012B70470000004870475805002010
:100990007546FFF7F9FFAE4605006946534620F05D
:1009A0000700854618B020B5FFF76AFCBDE8204077
:1009B0004FF000064FF000074FF000084FF0000B1B
:1009C00021F00701AC46ACE8C009ACE8C009ACE8CE
:1009D000C009ACE8C0098D46704710B50446AFF3B6
:1009E00000802046BDE81040FFF71CBC00BFFEE7BA
:1009F00008B5FFF71DFC1C480078012822D1002013
:100A000019490870FFF714FC2D2190FBF1F201FB4E
:100A10001200401C00EB80004FF6FF7101EA40001D
:100A200012490880FFF704FC372190FBF1F201FB2B
:100A30001200401C00EB80004FF6FF7101EA4000FD
:100A40000B4908804FF478400090094800880A302C
:100A500083B2064800880A3082B2054801880348FC
:100A6000008800F021FC08BD2200002024000020A6
:100A7000260000207047000051B18200A2F1C04260
:100A8000126842F001038200A2F1C042136009E043
:100A90008200A2F1C0421268034B1A408300A3F106
:100AA000C0431A6070470000FEFF0F00D0E901123A
:100AB0001143C268114302691143426911438269BB
:100AC0001143C2691143026A1143426A1143826AA7
:100AD0001143C26A1143026B114302689200A2F1F2
:100AE000C0421160816808290BD101688900A1F119
:100AF000C041096841F0400201688900A1F1C0418C
:100B00000A60416B0968426B526841EA0211426B0C
:100B1000926841EA0221426B928941EA0241426BAA
:100B2000128A41EA0251426B127D41EA0261426B34
:100B3000926911430268521C9200A2F1C0421160F6
:100B4000C16AB1F5804F1BD1816B0968826B526815
:100B500041EA0211826B926841EA0221826B128A99
:100B600041EA0251826B127D41EA0261826B926915
:100B7000114302689200A2F1C042C2F8041107E0DA
:100B80006FF0704201688900A1F1C041C1F80421F1
:100B900070472DE9F0410246002500260020002381
:100BA0000024002791F803C00CF00F0591F803C052
:100BB0000CF0100CBCF1000F03D091F802C04CEA0D
:100BC000050591F800C0BCF1000F31D01468002079
:100BD0002BE04FF0010C0CFA00F3B1F800C00CEA66
:100BE00003069E4220D183004FF00F0C0CFA03F74E
:100BF000BC4305FA03FC4CEA040491F803C0BCF1C1
:100C0000280F06D14FF0010C0CFA00FCC2F814C0FA
:100C10000AE091F803C0BCF1480F05D14FF0010C78
:100C20000CFA00FCC2F810C0401C0828D1D3146094
:100C3000B1F800C0BCF1FF0F34DD546800202EE095
:100C400000F1080C4FF0010808FA0CF3B1F800C0ED
:100C50000CEA03069E4221D183004FF00F0C0CFAE0
:100C600003F7BC4305FA03FC4CEA040491F803C003
:100C7000BCF1280F05D100F1080C08FA0CF8C2F8F5
:100C8000148091F803C0BCF1480F07D100F1080CA3
:100C90004FF0010808FA0CF8C2F81080401C082830
:100CA000CED35460BDE8F081F0B50A46002300249D
:100CB0000021002500F00046B6F1004F02D11D4E84
:100CC000F16901E01B4E7168C0F3034583B200F483
:100CD0004016B6F5401F08D121F07061154E7668B8
:100CE00026F07066134F7E6012E000F48016B6F5B1
:100CF000801F06D1032606FA05F4A14341F0706176
:100D000006E0460D360103FA06F6B14341F0706184
:100D100022B1460D360103FA06F6314300F00046D3
:100D2000B6F1004F02D1034EF16101E0014E716056
:100D3000F0BD0000000001400246002093680B4017
:100D40000BB1012000E000207047016170470000F6
:100D50001CB54FF6FF7000F0D3F815A018210B4614
:100D6000C822CDE900104FF4A071AA2004F028FA9F
:100D700012A018210B46C822CDE900104FF4B4711F
:100D8000A52004F01DFA41F2883006F063F80EA0A9
:100D900018210B464FF4C872CDE9001011466420AB
:100DA00004F00EFA41F2883006F054F81CBD000041
:100DB000594F55204C4F53452100000047414D45A8
:100DC000204F5645522100005052455353204B4569
:100DD000593120544F20434F4E54494E5545210020
:100DE0000120034908702D20024908607047000067
:100DF0001E0000208C00002000BFFEE708B5012186
:100E0000442004F0B9FD1C20ADF8000048208DF806
:100E1000030069460648FFF7BCFE0120ADF800005C
:100E200028208DF8030069460248FFF7B2FE08BD8E
:100E3000001801400008014010B5044614B101201B
:100E40002C4908702B480078002837D010212A48F8
:100E5000FFF772FF78B108212748FFF76DFF50B107
:100E600004212548FFF768FF28B101212348FFF737
:100E700063FF012822D10A2005F0ECFF00201D4964
:100E8000087010211C48FFF757FF08B9012010BD5A
:100E900008211948FFF750FF08B90220F7E704219D
:100EA0001548FFF749FF08B90320F0E7012113486F
:100EB000FFF742FF01281BD10420E8E710210E486C
:100EC000FFF73AFF012813D108210B48FFF734FF41
:100ED00001280DD104210848FFF72EFF012807D172
:100EE00001210648FFF728FF10B9012001490870C9
:100EF0000020CCE74C000020001801400008014011
:100F000070B50446002617480588408845431548B3
:100F1000808846F60401884216D11248807901285B
:100F200012D100200F4988712A2048812B20888106
:100F30000021084603F092FF01200A4988712B2006
:100F400048812A20888103E00021084603F086FFBB
:100F500004F076F9002602E003480480761CAE42D5
:100F6000FAD370BD8C0300200008006C10B5044655
:100F7000002C66D16C498871F02008804FF4A07075
:100F800048800846808849F2413188420BD0664843
:100F9000808846F60401884205D06348808845F27F
:100FA000103188421AD12C205F4908812A204881BB
:100FB0002B2088810846808846F60401884205D0A7
:100FC0005948808845F21031884206D14FF4A0700C
:100FD000554908804FF4F0704880A1E0524880885D
:100FE00045F21051884210D14FF430504E490881DB
:100FF0004FF4285048814FF42C5088814FF4F07002
:1010000008804FF4487048808AE04748808841F65D
:10101000631188420DD12C20434908812B2048813F
:101020002A2088814FF4F07008804FF4487048807F
:1010300076E022203C4908812020488121208881B7
:101040006EE00120384988714FF4A0700880F020CC
:1010500048800846808849F24131884205D03248AC
:10106000808845F21031884207D12C202E49088112
:101070002A2048812B2088813FE02B48808846F633
:101080000401884207D12C20274908812B20488160
:101090002A20888131E02448808845F21051884216
:1010A00010D14FF43050204908814FF42850488126
:1010B0004FF42C5088814FF4487008804FF4F07042
:1010C00048801AE01848808841F6631188420DD1A3
:1010D0002C20154908812A2048812B2088814FF433
:1010E000487008804FF4F070488006E022200E49D6
:1010F000088121204881202088810B48808846F67D
:101100000401884205D00848808845F210318842A1
:1011100006D14FF4F070044908804FF4A070488065
:10112000002003F025FD10BD8C03002030B50346E0
:101130000C4615465A48808849F24131884205D00C
:101140005748808845F21031884214D15449488963
:1011500004F070F8181204F067F8D8B204F064F8DC
:101160004F49888904F066F8201204F05DF8E0B277
:1011700004F05AF88CE04A48808845F210518842C1
:1011800020D14749488904F055F8181204F04CF86A
:1011900043494989491C88B204F04CF8D8B204F09C
:1011A00043F83F49888904F045F8201204F03CF8E0
:1011B0003B498989491C88B204F03CF8E0B204F04C
:1011C00033F865E03648808841F66311884228D1BB
:1011D0003348807920B932480088401EC01A83B253
:1011E0002F49488904F026F8181204F01DF8D8B2E7
:1011F00004F01AF8181204F017F8D8B204F014F832
:101200002749888904F016F8201204F00DF8E0B29E
:1012100004F00AF8201204F007F8E0B204F004F831
:1012200036E01F48808846F6040188421DD11C48DC
:101230008079012804D11A480088401EC01A83B260
:101240001749488903F0F6FF181203F0EDFFD8B2F2
:1012500003F0EAFF1249888903F0ECFF201203F043
:10126000E3FFE0B203F0E0FF12E00D4880790128CF
:1012700004D10B480088401EC01A83B2084948892F
:10128000194603F0E7FF06498889214603F0E2FF8B
:101290000348008903490880881C058030BD000090
:1012A0008C030020FE07006C2DE9FC4F05460E461E
:1012B00017469846DDF82C9000200190274880883A
:1012C00046F60401884229D124488079012825D195
:1012D000AB46354621480088C01B401E86B24746B3
:1012E0001E480088A0EB0B00401E1FFA80F800206B
:1012F0001A4988712A2048812B20888143463A4622
:1013000031462846CDF80090FFF7CEFF0120134963
:1013100088712B2048812A2088811CE0781B401C82
:1013200080B20190344614E02146284603F096FD31
:1013300003F086FF4FF0000A06E00948A0F800908D
:101340000AF101001FFA80FA01988245F5DB601C62
:1013500084B24445E8DDBDE8FC8F00008C0300202A
:101360000008006C00B59FB00121080204F0E4FA07
:1013700001214FF4B47004F0FFFA0120ADF87800B9
:1013800010208DF87B0003208DF87A001EA9FE48FE
:10139000FFF7FFFB4CF23370ADF8780018208DF8A2
:1013A0007B0003208DF87A001EA9F848FFF7F1FBB7
:1013B0004FF68070ADF8780018208DF87B00032080
:1013C0008DF87A001EA9F248FFF7E3FB41F2010015
:1013D000ADF8780018208DF87B0003208DF87A0096
:1013E0001EA9EC48FFF7D5FB0120089000200990CA
:1013F0000F200A9000200B900C900D900E90019001
:10140000029003200390002004900590069007901E
:1014100006200F90002010901190102012900020B4
:10142000139015901490169017904FF480501890C8
:10143000002019904FF480401A9000201B9008A8BB
:101440001C9001A81D900FA8FFF730FB012106207A
:10145000FFF712FB322005F0FDFC002003F052FBE9
:10146000CD49888008468088FF280ADB08468088A6
:101470004FF6FF71884204D0C7488088B0F5134FFB
:101480007ED1D32003F0D6FE03F032FBC249888020
:1014900003F02EFBC049888003F02AFBBE498880F8
:1014A000084680884FF6FF7101EA0020BA4988801B
:1014B00003F01EFBB84989880843B749888008466D
:1014C000808849F2413188425AD0BF2003F0B2FEF1
:1014D00003F00EFBB049888003F00AFBAE49888018
:1014E00003F006FBAC49888003F002FBAA49888020
:1014F000084680884FF6FF7101EA0020A6498880DF
:1015000003F0F6FAA44989880843A349888008466D
:10151000808846F6040188427AD0D42003F08AFEFF
:1015200003F0E6FA9C49888003F0E2FA9A49888041
:1015300003F0DEFA98498880084680884FF6FF71EC
:1015400001EA00209449888003F0D2FA9249898800
:101550000843914988800846808845F210318842C6
:1015600056D04FF45A4003F065FE03F0C1FA8A49A1
:1015700088804FF45B4003F05DFE03F0B9FA00E0B1
:1015800046E085498880084680884FF6FF7101EA69
:101590000020814988804FF45C4003F04BFE03F04B
:1015A000A7FA7D49898808437B4988800846808856
:1015B000B0F5004F02D145F21050888076488088FF
:1015C00045F21051884223D0A12003F033FE03F0EE
:1015D0008FFA7149888003F08BFA6F49888008463A
:1015E00080884FF6FF7101EA00206B49888003F084
:1015F0007FFA694989880843674988800846808856
:1016000045F26171884203D141F6631062498880D6
:101610006148818861A0FEF76BFE5F48808849F2CF
:10162000413188427ED1CF2003F004FE002003F038
:10163000FBFDC12003F0F8FD302003F0F5FDED20A7
:1016400003F0F8FD642003F0EFFD032003F0ECFD50
:10165000122003F0E9FD812003F0E6FDE82003F00D
:10166000E9FD852003F0E0FD102003F0DDFD7A2088
:1016700003F0DAFDCB2003F0DDFD392003F0D4FDCB
:101680002C2003F0D1FD002003F0CEFD342003F028
:10169000CBFD022003F0C8FDF72003F0CBFD202096
:1016A00003F0C2FDEA2003F0C5FD002003F0BCFDFD
:1016B000002003F0B9FDC02003F0BCFD1B2003F0A7
:1016C000B3FDC12003F0B6FD012003F0ADFDC52040
:1016D00003F0B0FD302003F0A7FD302003F0A4FD9F
:1016E000C72003F0A7FDB72003F09EFD362003F0CE
:1016F000A1FD482003F098FD3A2003F09BFD552002
:1017000003F092FDB12003F095FD002003F08CFD65
:101710001A2003F089FDB62003F08CFD0A2003F0A7
:1017200083FD00E0AAE0A22003F07EFDF22003F09A
:1017300081FD002003F078FD262003F07BFD0120D1
:1017400003F072FDE02003F075FD0F2003F06CFD47
:101750002A2003F069FD282003F066FD082003F02D
:1017600063FD0E2003F060FD082003F05DFD5420B2
:1017700003F05AFDA92003F057FD432003F054FD68
:101780000A2003F051FD11E0000C0140001401405B
:1017900000180140002001408C030020204C4344ED
:1017A0002049443A25780D0A000000000F2003F07C
:1017B0003BFD002003F038FD002003F035FD002044
:1017C00003F032FD002003F02FFDE12003F032FD95
:1017D000002003F029FD152003F026FD172003F05B
:1017E00023FD072003F020FD112003F01DFD06203E
:1017F00003F01AFD2B2003F017FD562003F014FD13
:101800003C2003F011FD052003F00EFD102003F035
:101810000BFD0F2003F008FD3F2003F005FD3F20E6
:1018200003F002FD0F2003F0FFFC2B2003F002FD6C
:10183000002003F0F9FC002003F0F6FC012003F087
:10184000F3FC3F2003F0F0FC2A2003F0F3FC00201F
:1018500003F0EAFC002003F0E7FC002003F0E4FCC6
:10186000EF2003F0E1FC112003F0E4FC782005F008
:10187000F1FA292003F0DEFC03F01DB9FE48808850
:1018800046F6040188427CD1112003F0D3FC1420D9
:1018900005F0E0FAD02003F0CDFC072003F0C4FCF3
:1018A000422003F0C1FC1D2003F0BEFCD12003F058
:1018B000C1FC002003F0B8FC1A2003F0B5FC09209D
:1018C00003F0B2FCD22003F0B5FC012003F0ACFC25
:1018D000222003F0A9FCC02003F0ACFC102003F090
:1018E000A3FC3B2003F0A0FC002003F09DFC0220A1
:1018F00003F09AFC112003F097FCC52003F09AFC3A
:10190000032003F091FCC82003F094FC002003F0B6
:101910008BFC252003F088FC212003F085FC0520AA
:1019200003F082FC002003F07FFC0A2003F07CFC23
:10193000652003F079FC252003F076FC772003F086
:1019400073FC502003F070FC0F2003F06DFC0020AE
:1019500003F06AFCF82003F06DFC012003F064FC46
:10196000FE2003F067FC002003F05EFC022003F081
:101970005BFC202003F05EFC362003F05BFC0820BB
:1019800000E02CE003F050FC3A2003F053FC55201B
:1019900003F04AFC2B2003F04DFC002003F044FC34
:1019A000002003F041FC012003F03EFC3F2003F047
:1019B0003BFC2A2003F03EFC002003F035FC002015
:1019C00003F032FC012003F02FFCDF2003F02CFC9D
:1019D000782005F03FFA292003F02CFC4CE7A648BC
:1019E000808845F21031884240F07C87ED2003F07A
:1019F00021FC012003F018FCFE2003F015FCEE2072
:101A000003F018FCDE2003F00FFC212003F00CFC97
:101A1000F12003F00FFC012003F006FCDF2003F0AF
:101A200009FC102003F000FCC42003F003FC8F200D
:101A300003F0FAFBC62003F0FDFB002003F0F4FBEB
:101A4000E22003F0F1FBE22003F0EEFBE22003F0E2
:101A5000EBFBBF2003F0EEFBAA2003F0E5FBB02078
:101A600003F0E8FB0D2003F0DFFB002003F0DCFBBC
:101A70000D2003F0D9FB002003F0D6FB112003F06A
:101A8000D3FB002003F0D0FB192003F0CDFB002096
:101A900003F0CAFB212003F0C7FB002003F0C4FBC6
:101AA0002D2003F0C1FB002003F0BEFB3D2003F01E
:101AB000BBFB002003F0B8FB5D2003F0B5FB00206A
:101AC00003F0B2FB5D2003F0AFFB002003F0ACFBA2
:101AD000B12003F0AFFB802003F0A6FB002003F051
:101AE000A3FB8B2003F0A0FB002003F09DFB9620BE
:101AF00003F09AFB002003F097FBB22003F09AFB5F
:101B0000002003F091FB002003F08EFB022003F085
:101B10008BFB002003F088FB032003F085FB0020F3
:101B200003F082FBB32003F085FB002003F07CFB75
:101B3000002003F079FB002003F076FB002003F087
:101B400073FB002003F070FB002003F06DFB00200E
:101B500003F06AFB002003F067FB002003F064FB46
:101B6000002003F061FB002003F05EFB002003F087
:101B70005BFB002003F058FB002003F055FB002026
:101B800003F052FB002003F04FFB002003F04CFB5E
:101B9000002003F049FB002003F046FB002003F087
:101BA00043FB002003F040FB002003F03DFB00203E
:101BB00003F03AFB002003F037FBB42003F03AFBBC
:101BC0008B2003F031FB002003F02EFB962003F066
:101BD0002BFB002003F028FBA12003F025FB0020B5
:101BE00003F022FBB52003F025FB022003F01CFBD1
:101BF000002003F019FB032003F016FB002003F084
:101C000013FB042003F010FB002003F00DFBB620B3
:101C100003F010FB002003F007FB002003F004FB9F
:101C2000B72003F007FB002003F0FEFA002003F0CA
:101C3000FBFA3F2003F0F8FA002003F0F5FA5E20EB
:101C400003F0F2FA002003F0EFFA642003F0ECFA5C
:101C5000002003F0E9FA8C2003F0E6FA002003F0FC
:101C6000E3FAAC2003F0E0FA002003F0DDFADC2018
:101C700003F0DAFA002001E08C03002003F0D4FA2C
:101C8000702003F0D1FA002003F0CEFA902003F088
:101C9000CBFA002003F0C8FAEB2003F0C5FA0020CD
:101CA00003F0C2FADC2003F0BFFA002003F0BCFA14
:101CB000B82003F0BFFA002003F0B6FA002003F0CA
:101CC000B3FA002003F0B0FA002003F0ADFA0020D0
:101CD00003F0AAFA002003F0A7FA002003F0A4FA08
:101CE000002003F0A1FABA2003F0A4FA242003F0A4
:101CF0009BFA002003F098FA002003F095FA0020E8
:101D000003F092FAC12003F095FA202003F08CFA38
:101D1000002003F089FA542003F086FA002003F033
:101D200083FAFF2003F080FA002003F07DFAC2203E
:101D300003F080FA0A2003F077FA002003F074FA27
:101D4000042003F071FA002003F06EFAC32003F0C0
:101D500071FA3C2003F068FA002003F065FA3A209B
:101D600003F062FA002003F05FFA392003F05CFA16
:101D7000002003F059FA372003F056FA002003F050
:101D800053FA3C2003F050FA002003F04DFA3620BD
:101D900003F04AFA002003F047FA322003F044FA35
:101DA000002003F041FA2F2003F03EFA002003F058
:101DB0003BFA2C2003F038FA002003F035FA2920F2
:101DC00003F032FA002003F02FFA262003F02CFA59
:101DD000002003F029FA242003F026FA002003F063
:101DE00023FA242003F020FA002003F01DFA232018
:101DF00003F01AFA002003F017FA3C2003F014FA5B
:101E0000002003F011FA362003F00EFA002003F050
:101E10000BFA322003F008FA002003F005FA2F2015
:101E200003F002FA002003F0FFF92C2003F0FCF984
:101E3000002003F0F9F9292003F0F6F9002003F05F
:101E4000F3F9262003F0F0F9002003F0EDF9242047
:101E500003F0EAF9002003F0E7F9242003F0E4F9A5
:101E6000002003F0E1F9232003F0DEF9002003F065
:101E7000DBF9C42003F0DEF9622003F0D5F900207D
:101E800003F0D2F9052003F0CFF9002003F0CCF9DC
:101E9000842003F0C9F9002003F0C6F9F02003F014
:101EA000C3F9002003F0C0F9182003F0BDF90020A9
:101EB00003F0BAF9A42003F0B7F9002003F0B4F955
:101EC000182003F0B1F9002003F0AEF9502003F020
:101ED000ABF9002003F0A8F90C2003F0A5F90020CD
:101EE00003F0A2F9172003F09FF9002003F09CF9FA
:101EF000952003F099F9002003F096F9F32003F000
:101F000093F9002003F090F9E62003F08DF900200A
:101F100003F08AF9C52003F08DF9322003F084F92B
:101F2000002003F081F9442003F07EF9002003F043
:101F30007BF9652003F078F9002003F075F976202D
:101F400003F072F9002003F06FF9882003F06CF9B8
:101F5000002003F069F9C62003F06CF9202003F09B
:101F600063F9002003F060F9172003F05DF9002009
:101F700003F05AF9012003F057F9002003F054F957
:101F8000C72003F057F9002003F04EF9002003F0BA
:101F90004BF9002003F048F9002003F045F9C82070
:101FA00003F048F9002003F03FF9002003F03CF96A
:101FB000002003F039F9002003F036F9C92003F0BE
:101FC00039F9002003F030F9002003F02DF900204A
:101FD00003F02AF9002003F027F9002003F024F988
:101FE000002003F021F9002003F01EF9002003F087
:101FF0001BF9002003F018F9002003F015F9002068
:1020000003F012F9002003F00FF9002003F00CF99F
:10201000002003F009F9002003F006F9002003F086
:1020200003F9E02003F006F9162003F0FDF8002084
:1020300003F0FAF81C2003F0F7F8002003F0F4F89E
:10204000212003F0F1F8002003F0EEF8362003F031
:10205000EBF8002003F0E8F8462003F0E5F8002054
:1020600003F0E2F8522003F0DFF8002003F0DCF880
:10207000642003F0D9F8002003F0D6F87A2003F0AA
:10208000D3F8002003F0D0F88B2003F0CDF8002027
:1020900003F0CAF8992003F0C7F8002003F0C4F851
:1020A000A82003F0C1F8002003F0BEF8B92003F027
:1020B000BBF8002003F0B8F8C42003F0B5F8002006
:1020C00003F0B2F8CA2003F0AFF8002003F0ACF838
:1020D000D22003F0A9F8002003F0A6F8D92003F0DD
:1020E000A3F8002003F0A0F8E02003F09DF8002002
:1020F00003F09AF8F32003F097F8002003F094F827
:10210000E12003F097F8162003F08EF8002003F08A
:102110008BF81C2003F088F8002003F085F82220BB
:1021200003F082F8002003F07FF8362003F07CF8FB
:10213000002003F079F8452003F076F8002003F042
:1021400073F8522003F070F8002003F06DF864205B
:1021500003F06AF8002003F067F87A2003F064F8CF
:10216000002003F061F88B2003F05EF8002003F0FC
:102170005BF8992003F058F8002003F055F8A820E8
:1021800003F052F8002003F04FF8B92003F04CF8A8
:10219000002003F049F8C42003F046F8002003F0C3
:1021A00043F8CA2003F040F8002003F03DF8D220A5
:1021B00003F03AF8002003F037F8D82003F034F8A1
:1021C000002003F031F8E02003F02EF8002003F0A7
:1021D0002BF8F32003F028F8002003F025F8E22084
:1021E00003F028F8052003F01FF8002003F01CF886
:1021F0000B2003F019F8002003F016F81B2003F061
:1022000013F8002003F010F8342003F00DF800203C
:1022100003F00AF8442003F007F8002003F004F864
:102220004F2003F001F8002002F0FEFF612002F0D1
:10223000FBFF002002F0F8FF792002F0F5FF0020FC
:1022400002F0F2FF882002F0EFFF002002F0ECFF26
:10225000972002F0E9FF002002F0E6FFA62002F03E
:10226000E3FF002002F0E0FFB72002F0DDFF0020D6
:1022700002F0DAFFC22002F0D7FF002002F0D4FF04
:10228000C72002F0D1FF002002F0CEFFD12002F0E3
:10229000CBFF002002F0C8FFD62002F0C5FF0020CF
:1022A00002F0C2FFDD2002F0BFFF002002F0BCFF01
:1022B000F32002F0B9FF002002F0B6FFE32002F0A5
:1022C000B9FF052002F0B0FF002002F0ADFF0A20A8
:1022D00002F0AAFF002002F0A7FF1C2002F0A4FFDA
:1022E000002002F0A1FF332002F09EFF002002F048
:1022F0009BFF442002F098FF002002F095FF502041
:1023000002F092FF002002F08FFF622002F08CFFAB
:10231000002002F089FF782002F086FF002002F002
:1023200083FF882002F080FF002002F07DFF9720CD
:1023300002F07AFF002002F077FFA62002F074FF7F
:10234000002002F071FFB72002F06EFF002002F0C3
:102350006BFFC22002F068FF002002F065FFC7207B
:1023600002F062FF002002F05FFFD12002F05CFF6C
:10237000002002F059FFD52002F056FF002002F0A5
:1023800053FFDD2002F050FF002002F04DFFF3204C
:1023900002F04AFF002002F047FFE42002F04AFF6B
:1023A000012002F041FF002002F03EFF012002F078
:1023B0003BFF002002F038FF022002F035FF002032
:1023C00002F032FF2A2002F02FFF002002F02CFF43
:1023D0003C2002F029FF002002F026FF4B2002F0F3
:1023E00023FF002002F020FF5D2002F01DFF0020EF
:1023F00002F01AFF742002F017FF002002F014FF11
:10240000842002F011FF002002F00EFF932002F062
:102410000BFF002002F008FFA22002F005FF0020C1
:1024200002F002FFB32002F0FFFE002002F0FCFEEB
:10243000BE2002F0F9FE002002F0F6FEC42002F0F9
:10244000F3FE002002F0F0FECD2002F0EDFE0020B1
:1024500002F0EAFED32002F0E7FE002002F0E4FEE4
:10246000DD2002F0E1FE002002F0DEFEF32002F0AB
:10247000DBFE002002F0D8FEE52002F0DBFE0020AB
:1024800002F0D2FE002002F0CFFE002002F0CCFECF
:10249000002002F0C9FE022002F0C6FE002002F079
:1024A000C3FE292002F0C0FE002002F0BDFE3C2049
:1024B00002F0BAFE002002F0B7FE4B2002F0B4FE9C
:1024C000002002F0B1FE5D2002F0AEFE002002F01E
:1024D000ABFE742002F0A8FE002002F0A5FE8420CE
:1024E00002F0A2FE002002F09FFE932002F09CFE6C
:1024F000002002F099FEA22002F096FE002002F0D9
:1025000093FEB32002F090FE002002F08DFEBE206C
:1025100002F08AFE002002F087FEC42002F084FE52
:10252000002002F081FECD2002F07EFE002002F0AD
:102530007BFED32002F078FE002002F075FEDC2046
:1025400002F072FE002002F06FFEF32002F06CFE3B
:10255000002002F069FEE62002F06CFE112002F07D
:1025600063FE002002F060FE342002F05DFE0020D9
:1025700002F05AFE562002F057FE002002F054FEF0
:10258000762002F051FE002002F04EFE772002F08D
:102590004BFE002002F048FE662002F045FE0020BF
:1025A00002F042FE882002F03FFE002002F03CFED6
:1025B000992002F039FE002002F036FEBB2002F026
:1025C00033FE002002F030FE992002F02DFE0020A4
:1025D00002F02AFE662002F027FE002002F024FE10
:1025E000552002F021FE002002F01EFE552002F0D0
:1025F0001BFE002002F018FE452002F015FE002010
:1026000002F012FE432002F00FFE002002F00CFE4A
:10261000442002F009FE002002F006FEE72002F04E
:1026200009FE322002F000FE002002F0FDFD5520E0
:1026300002F0FAFD002002F0F7FD762002F0F4FD32
:10264000002002F0F1FD662002F0EEFD002002F015
:10265000EBFD672002F0E8FD002002F0E5FD6720B9
:1026600002F0E2FD002002F0DFFD872002F0DCFD39
:10267000002002F0D9FD992002F0D6FD002002F0E2
:10268000D3FDBB2002F0D0FD002002F0CDFD99204B
:1026900002F0CAFD002002F0C7FD772002F0C4FD61
:1026A000002002F0C1FD442002F0BEFD002002F037
:1026B000BBFD562002F0B8FD002002F0B5FD23203E
:1026C00002F0B2FD002002F0AFFD332002F0ACFDBD
:1026D000002002F0A9FD452002F0A6FD002002F036
:1026E000A3FDE82002F0A6FD002002F09DFD0020E1
:1026F00002F09AFD992002F097FD002002F094FD6F
:10270000872002F091FD002002F08EFD882002F06B
:102710008BFD002002F088FD772002F085FD00206F
:1027200002F082FD662002F07FFD002002F07CFDB9
:10273000882002F079FD002002F076FDAA2002F048
:1027400073FD002002F070FDBB2002F06DFD002043
:1027500002F06AFD992002F067FD002002F064FD9E
:10276000662002F061FD002002F05EFD552002F0BF
:102770005BFD002002F058FD552002F055FD0020C1
:1027800002F052FD442002F04FFD002002F04CFD0B
:10279000442002F049FD002002F046FD552002F0E1
:1027A00043FD002002F040FDE92002F043FDAA2095
:1027B00002F03AFD002002F037FD002002F034FD67
:1027C000002002F031FD002002F034FDAA2002F0CA
:1027D0002BFDCF2002F02EFD002002F025FD002071
:1027E00002F022FD002002F01FFD002002F01CFD7F
:1027F000002002F019FD002002F016FD002002F07A
:1028000013FD002002F010FD002002F00DFD00205D
:1028100002F00AFD002002F007FD002002F004FD96
:10282000002002F001FD002002F0FEFC002002F07A
:10283000FBFC002002F0F8FC002002F0F5FCF02088
:1028400002F0F8FC002002F0EFFC502002F0ECFC5B
:10285000002002F0E9FC002002F0E6FC002002F07B
:10286000E3FCF32002F0E6FC002002F0DDFCF9209E
:1028700002F0E0FC062002F0D7FC102002F0D4FCAD
:10288000292002F0D1FC002002F0CEFC3A2002F018
:10289000D1FC552002F0C8FC112002F0CBFC6420D2
:1028A00004F0D8FA292002F0C5FC352002F0C2FC61
:1028B000002002F0B9FC512002F0BCFCFF2002F025
:1028C000B3FC532002F0B6FC2C2002F0ADFC5520E6
:1028D00002F0B0FC822002F0A7FC2C2002F0AAFC3F
:1028E00002F0E9B8FE48808845F2105188427DD157
:1028F00055214FF4704002F0ADFCAA214FF20100C7
:1029000002F0A8FC52214FF2020002F0A3FC0821C1
:102910004FF2030002F09EFC01214FF2040002F08E
:1029200099FC0D214FF4304002F094FC0D214BF244
:10293000010002F08FFC0D214BF2020002F08AFC34
:1029400034214FF4364002F085FC34214BF2016013
:1029500002F080FC34214BF2026002F07BFC0D217E
:102960004FF4314002F076FC0D214BF2011002F0E1
:1029700071FC0D214BF2021002F06CFC34214FF47B
:10298000374002F067FC34214BF2017002F062FC28
:1029900034214BF2027002F05DFC00214FF4324012
:1029A00002F058FC00214BF2012002F053FC002100
:1029B0004BF2022002F04EFC24214FF4384002F08A
:1029C00049FC24214BF6010002F044FC24214BF683
:1029D000020002F03FFC01214FF43F4002F03AFCBC
:1029E0000F214FF4334002F035FC00E0FDE30F21EE
:1029F0004BF2013002F02EFC0F214BF2023002F0BC
:102A000029FC34214FF4394002F024FC34214BF6E8
:102A1000011002F01FFC34214BF6021002F01AFCE8
:102A200008214FF4354002F015FC08214BF201500B
:102A300002F010FC08214BF2025002F00BFC0321C3
:102A40004FF4424002F006FC24214FF43A4002F0D9
:102A500001FC24214BF6012002F0FCFB24214BF663
:102A6000022002F0F7FB00214FF43C4002F0F2FBA1
:102A700078214BF6014002F0EDFB00214BF60240BD
:102A800002F0E8FB00214FF43D4002F0E3FB782127
:102A90004BF6015002F0DEFB00214BF6025002F033
:102AA000D9FB00214FF43E4002F0D4FB64214BF6E9
:102AB000016002F0CFFB00214FF4514002F0CAFB4D
:102AC00033214DF2011002F0C5FB00214DF202103E
:102AD00002F0C0FB34214DF2031002F0BBFB0021D9
:102AE0004DF2041002F0B6FB3A214DF2051002F04F
:102AF000B1FB00214DF2061002F0ACFB4A214DF271
:102B0000071002F0A7FB00214DF2081002F0A2FB13
:102B10005C214DF2091002F09DFB00214DF20A10DC
:102B200002F098FB81214DF20B1002F093FB002183
:102B30004DF20C1002F08EFBA6214DF20D1002F0AA
:102B400089FB00214DF20E1002F084FBE5214DF2CD
:102B50000F1002F07FFB01214DF2101002F07AFB02
:102B600013214DF2111002F075FB01214DF21210EC
:102B700002F070FB54214DF2131002F06BFB0121A7
:102B80004DF2141002F066FB82214DF2151002F096
:102B900061FB01214DF2161002F05CFBCA214DF2DF
:102BA000171002F057FB02214DF2181002F052FBF1
:102BB00000214DF2191002F04DFB02214DF21A10C6
:102BC00002F048FB01214DF21B1002F043FB0221F1
:102BD0004DF21C1002F03EFB34214DF21D1002F0AC
:102BE00039FB02214DF21E1002F034FB67214DF239
:102BF0001F1002F02FFB02214DF2201002F02AFBE1
:102C000084214DF2211002F025FB02214DF2221009
:102C100002F020FBA4214DF2231002F01BFB022145
:102C20004DF2241002F016FBB7214DF2251002F0F0
:102C300011FB02214DF2261002F00CFBCF214DF2C8
:102C4000271002F007FB02214DF2281002F002FBD0
:102C5000DE214DF2291002F0FDFA02214DF22A1078
:102C600002F0F8FAF2214DF22B1002F0F3FA0221F1
:102C70004DF22C1002F0EEFAFE214DF22D1002F072
:102C8000E9FA03214DF22E1002F0E4FA10214DF280
:102C90002F1002F0DFFA03214DF2301002F0DAFAC1
:102CA00033214DF2311002F0D5FA03214DF23210EA
:102CB00002F0D0FA6D214DF2331002F0CBFA002170
:102CC0004FF4524002F0C6FA33214DF2012002F0D7
:102CD000C1FA00214DF2022002F0BCFA342101E0D9
:102CE0008C0300204DF2032002F0B4FA00214DF2D3
:102CF000042002F0AFFA3A214DF2052002F0AAFAC0
:102D000000214DF2062002F0A5FA4A214DF20720DB
:102D100002F0A0FA00214DF2082002F09BFA5C219B
:102D20004DF2092002F096FA00214DF20A2002F03D
:102D300091FA81214DF20B2002F08CFA00214DF224
:102D40000C2002F087FAA6214DF20D2002F082FA43
:102D500000214DF20E2002F07DFAE5214DF20F2008
:102D600002F078FA01214DF2102002F073FA1321DB
:102D70004DF2112002F06EFA01214DF2122002F004
:102D800069FA54214DF2132002F064FA01214DF248
:102D9000142002F05FFA82214DF2152002F05AFA57
:102DA00001214DF2162002F055FACA214DF21720EA
:102DB00002F050FA02214DF2182002F04BFA0021E5
:102DC0004DF2192002F046FA02214DF21A2002F0CB
:102DD00041FA01214DF21B2002F03CFA02214DF292
:102DE0001C2002F037FA34214DF21D2002F032FA95
:102DF00002214DF21E2002F02DFA67214DF21F2014
:102E000002F028FA02214DF2202002F023FA842158
:102E10004DF2212002F01EFA02214DF2222002F092
:102E200019FAA4214DF2232002F014FA02214DF2E6
:102E3000242002F00FFAB7214DF2252002F00AFA01
:102E400002214DF2262002F005FACF214DF2272073
:102E500002F000FA02214DF2282002F0FBF9DE21F7
:102E60004DF2292002F0F6F902214DF22A2002F05B
:102E7000F1F9F2214DF22B2002F0ECF902214DF292
:102E80002C2002F0E7F9FE214DF22D2002F0E2F9AC
:102E900003214DF22E2002F0DDF910214DF22F20FA
:102EA00002F0D8F903214DF2302002F0D3F933219A
:102EB0004DF2312002F0CEF903214DF2322002F022
:102EC000C9F96D214DF2332002F0C4F900214FF40D
:102ED000534002F0BFF933214DF2013002F0BAF94C
:102EE00000214DF2023002F0B5F934214DF20330E9
:102EF00002F0B0F900214DF2043002F0ABF93A21B2
:102F00004DF2053002F0A6F900214DF2063002F034
:102F1000A1F94A214DF2073002F09CF900214DF24F
:102F2000083002F097F95C214DF2093002F092F975
:102F300000214DF20A3002F08DF981214DF20B3063
:102F400002F088F900214DF20C3002F083F9A6213D
:102F50004DF20D3002F07EF900214DF20E3002F0FC
:102F600079F9E5214DF20F3002F074F901214DF2AB
:102F7000103002F06FF913214DF2113002F06AF9AE
:102F800001214DF2123002F065F954214DF2133057
:102F900002F060F901214DF2143002F05BF9822158
:102FA0004DF2153002F056F901214DF2163002F0C3
:102FB00051F9CA214DF2173002F04CF902214DF2BD
:102FC000183002F047F900214DF2193002F042F9B1
:102FD00002214DF21A3002F03DF901214DF21B3071
:102FE00002F038F902214DF21C3002F033F934219D
:102FF0004DF21D3002F02EF902214DF21E3002F08A
:1030000029F967214DF21F3002F024F902214DF217
:10301000203002F01FF984214DF2213002F01AF91C
:1030200002214DF2223002F015F9A4214DF2233095
:1030300002F010F902214DF2243002F00BF9B72111
:103040004DF2253002F006F902214DF2263002F051
:1030500001F9CF214DF2273002F0FCF802214DF2A8
:10306000283002F0F7F8DE214DF2293002F0F2F8B4
:1030700002214DF22A3002F0EDF8F2214DF22B3010
:1030800002F0E8F802214DF22C3002F0E3F8FE21C4
:103090004DF22D3002F0DEF803214DF22E3002F019
:1030A000D9F810214DF22F3002F0D4F803214DF25F
:1030B000303002F0CFF833214DF2313002F0CAF84F
:1030C00003214DF2323002F0C5F86D214DF233305C
:1030D00002F0C0F800214FF4544002F0BBF8332155
:1030E0004DF2014002F0B6F800214DF2024002F02C
:1030F000B1F834214DF2034002F0ACF800214DF25A
:10310000044002F0A7F83A214DF2054002F0A2F87F
:1031100000214DF2064002F09DF84A214DF2074091
:1031200002F098F800214DF2084002F093F85C217B
:103130004DF2094002F08EF800214DF20A4002F0F3
:1031400089F881214DF20B4002F084F800214DF204
:103150000C4002F07FF8A6214DF20D4002F07AF803
:1031600000214DF20E4002F075F8E5214DF20F40BE
:1031700002F070F801214DF2104002F06BF81321BB
:103180004DF2114002F066F801214DF2124002F0BA
:1031900061F854214DF2134002F05CF801214DF228
:1031A000144002F057F882214DF2154002F052F817
:1031B00001214DF2164002F04DF8CA214DF21740A0
:1031C00002F048F802214DF2184002F043F80021C5
:1031D0004DF2194002F03EF802214DF21A4002F081
:1031E00039F801214DF21B4000E006E302F032F80D
:1031F00002214DF21C4002F02DF834214DF21D4009
:1032000002F028F802214DF21E4002F023F8672157
:103210004DF21F4002F01EF802214DF2204002F054
:1032200019F884214DF2214002F014F802214DF2E8
:10323000224002F00FF8A4214DF2234002F00AF8D8
:1032400002214DF2244002F005F8B7214DF225404D
:1032500002F000F802214DF2264001F0FBFFCF21E1
:103260004DF2274001F0F6FF02214DF2284001F017
:10327000F1FFDE214DF2294001F0ECFF02214DF279
:103280002A4001F0E7FFF2214DF22B4001F0E2FF6E
:1032900002214DF22C4001F0DDFFFE214DF22D40C8
:1032A00001F0D8FF03214DF22E4001F0D3FF102191
:1032B0004DF22F4001F0CEFF03214DF2304001F0DE
:1032C000C9FF33214DF2314001F0C4FF03214DF21B
:1032D000324001F0BFFF6D214DF2334001F0BAFFE3
:1032E00000214FF4554001F0B5FF33214DF201505C
:1032F00001F0B0FF00214DF2025001F0ABFF34218C
:103300004DF2035001F0A6FF00214DF2045001F0F0
:10331000A1FF3A214DF2055001F09CFF00214DF232
:10332000065001F097FF4A214DF2075001F092FF3D
:1033300000214DF2085001F08DFF5C214DF2095043
:1033400001F088FF00214DF20A5001F083FF812136
:103350004DF20B5001F07EFF00214DF20C5001F0B8
:1033600079FFA6214DF20D5001F074FF00214DF2BE
:103370000E5001F06FFFE5214DF20F5001F06AFF92
:1033800001214DF2105001F065FF13214DF2115053
:1033900001F060FF01214DF2125001F05BFF54215A
:1033A0004DF2135001F056FF01214DF2145001F07F
:1033B00051FF82214DF2155001F04CFF01214DF2D9
:1033C000165001F047FFCA214DF2175001F042FF9D
:1033D00002214DF2185001F03DFF00214DF219502D
:1033E00001F038FF02214DF21A5001F033FF0121A4
:1033F0004DF21B5001F02EFF02214DF21C5001F046
:1034000029FF34214DF21D5001F024FF02214DF21D
:103410001E5001F01FFF67214DF21F5001F01AFFEF
:1034200002214DF2205001F015FF84214DF2215070
:1034300001F010FF02214DF2225001F00BFFA421F8
:103440004DF2235001F006FF02214DF2245001F00D
:1034500001FFB7214DF2255001F0FCFE02214DF293
:10346000265001F0F7FECF214DF2275001F0F2FE79
:1034700002214DF2285001F0EDFEDE214DF22950DF
:1034800001F0E8FE02214DF22A5001F0E3FEF221A4
:103490004DF22B5001F0DEFE02214DF22C5001F0D6
:1034A000D9FEFE214DF22D5001F0D4FE03214DF244
:1034B0002E5001F0CFFE10214DF22F5001F0CAFE28
:1034C00003214DF2305001F0C5FE33214DF2315051
:1034D00001F0C0FE03214DF2325001F0BBFE6D2120
:1034E0004DF2335001F0B6FE00214FF4564001F08A
:1034F000B1FE33214DF2016001F0ACFE00214DF22E
:10350000026001F0A7FE34214DF2036001F0A2FE3B
:1035100000214DF2046001F09DFE3A214DF205605C
:1035200001F098FE00214DF2066001F093FE4A2161
:103530004DF2076001F08EFE00214DF2086001F0AF
:1035400089FE5C214DF2096001F084FE00214DF2FC
:103550000A6001F07FFE81214DF20B6001F07AFEDE
:1035600000214DF20C6001F075FEA6214DF20D60B8
:1035700001F070FE00214DF20E6001F06BFEE521BE
:103580004DF20F6001F066FE01214DF2106001F076
:1035900061FE13214DF2116001F05CFE01214DF23C
:1035A000126001F057FE54214DF2136001F052FEFB
:1035B00001214DF2146001F04DFE82214DF21560A3
:1035C00001F048FE01214DF2166001F043FECA21D0
:1035D0004DF2176001F03EFE02214DF2186001F03D
:1035E00039FE00214DF2196001F034FE02214DF246
:1035F0001A6001F02FFE01214DF21B6001F02AFE3E
:1036000002214DF21C6001F025FE34214DF21D60B7
:1036100001F020FE02214DF21E6001F01BFE672129
:103620004DF21F6001F016FE02214DF2206001F004
:1036300011FE84214DF2216001F00CFE02214DF2B9
:10364000226001F007FEA4214DF2236001F002FE8A
:1036500002214DF2246001F0FDFDB7214DF22560FD
:1036600001F0F8FD02214DF2266001F0F3FDCF21BB
:103670004DF2276001F0EEFD02214DF2286001F0CD
:10368000E9FDDE214DF2296001F0E4FD02214DF259
:103690002A6001F0DFFDF2214DF22B6001F0DAFD2E
:1036A00002214DF22C6001F0D5FDFE214DF22D607E
:1036B00001F0D0FD03214DF22E6001F0CBFD102171
:1036C0004DF22F6001F0C6FD03214DF2306001F094
:1036D000C1FD33214DF2316001F0BCFD03214DF2FB
:1036E000326001F0B7FD6D214DF2336001F0B2FDA3
:1036F00055214FF4704001F0ADFDAA214FF20100B9
:1037000001F0A8FD52214FF2020001F0A3FD0821B3
:103710004FF2030001F09EFD00214FF2040001F082
:1037200099FDCC214FF4314001F094FD00214BF282
:10373000011001F08FFD05214FF4364001F08AFDA4
:1037400070214FF4374001F085FD70214BF201707C
:1037500001F080FD01214FF4384001F07BFD032191
:103760004BF6010001F076FD03214BF6020001F05B
:1037700071FD03214BF6030001F06CFD02214FF4B3
:103780003C4001F067FD00214BF6014001F062FD75
:1037900000214BF6024001F05DFDD0214FF449407D
:1037A00001F058FD02214CF6011001F053FD5021AB
:1037B0004CF6021001F04EFD50214CF6031001F0C2
:1037C00049FD50214CF6041001F044FD00214FF456
:1037D000545001F03FFD55214FF4685001F03AFD7F
:1037E0004FF4885001F026FD782003F059FB4FF488
:1037F000245001F01FFD01F05EB9FE48808849F2B7
:10380000253188427ED147F6F001E52001F022FD06
:103810004FF48071012001F01DFD4FF4E0610220A2
:1038200001F018FD41F23001032001F013FD0021E9
:10383000042001F00FFD40F20221082001F00AFDF2
:103840000021092001F006FD00210A2001F002FDFF
:1038500000210C2001F0FEFC00210D2001F0FAFCFB
:1038600000210F2001F0F6FC0021102001F0F2FCF5
:103870000721112001F0EEFC0021122001F0EAFCEA
:103880000021132001F0E6FC0021072001F0E2FCFA
:1038900041F29061102001F0DDFC40F2272111205F
:1038A00001F0D8FC9D21122001F0D4FC4FF4C85146
:1038B000132001F0CFFC2521292001F0CBFC0D21A4
:1038C0002B2001F0C7FC0721302001F0C3FC40F29F
:1038D0000331312001F0BEFC0321322001F0BAFC9B
:1038E00040F20621352001F0B5FC0821362001F018
:1038F000B1FC40F20641372001F0ACFC4FF44171BD
:10390000382000E057E001F0A5FC0721392001F044
:10391000A1FC40F202613C2001F09CFC08213D200A
:1039200001F098FC0021502001F094FCEF2151207F
:1039300001F090FC0021522001F08CFC40F23F117C
:10394000532001F087FC4FF42741602001F082FCF6
:103950000121612001F07EFC00216A2001F07AFC47
:103960000021802001F076FC0021812001F072FC12
:103970000021822001F06EFC0021832001F06AFC0E
:103980000021842001F066FC0021852001F062FC0A
:103990001021902001F05EFC4FF4C061922001F0F4
:1039A00059FC40F23311072001F054FC2221002081
:1039B00001F050FC1FE78F48808849F22831884287
:1039C0007ED141F28F01EC2001F044FC41F2342120
:1039D000EF2001F03FFC4FF48071012001F03AFC30
:1039E0004FF4E061022001F035FC41F23001032088
:1039F00001F030FC0021042001F02CFC40F20221F7
:103A0000082001F027FC0021092001F023FC0021FF
:103A10000A2001F01FFC01210C2001F01BFC0021F9
:103A20000D2001F017FC00210F2001F013FC0021F4
:103A3000102001F00FFC0721112001F00BFC0021E8
:103A4000122001F007FC0021132001F003FC0121EA
:103A5000072001F0FFFB322003F0FCF941F2904116
:103A6000102001F0F7FB40F22721112001F0F2FBBA
:103A7000322003F0EFF98A21122001F0EBFB322013
:103A800003F0E8F94FF4D051132001F0E3FB0621D5
:103A9000292001F0DFFB0D212B2001F0DBFB322080
:103AA00003F0D8F90021202001F0D4FB00212120CF
:103AB00001F0D0FB322003F0CDF90021302000E0EE
:103AC00074E001F0C7FB40F20461312001F0C2FB59
:103AD00040F20531322001F0BDFB0021352001F01C
:103AE000B9FB40F60941362001F0B4FB4FF40171F7
:103AF000372001F0AFFB40F20131382001F0AAFB82
:103B000040F20771392001F0A5FB00213C2001F0B3
:103B1000A1FB40F60A213D2001F09CFB322003F07E
:103B200099F90021502001F095FBEF21512001F07F
:103B300091FB0021522001F08DFB40F23F115320F8
:103B400001F088FB4FF42741602001F083FB012145
:103B5000612001F07FFB00216A2001F07BFB002146
:103B6000802001F077FB0021812001F073FB002110
:103B7000822001F06FFB0021832001F06BFB00210C
:103B8000842001F067FB0021852001F063FB1021F8
:103B9000902001F05FFB4FF4C061922001F05AFBCE
:103BA00040F23311072001F055FB24E611488088CC
:103BB00049F2203188427DD10021084601F04AFBBC
:103BC0004FF48071012001F045FB4FF4E0610220C9
:103BD00001F040FB41F23001032001F03BFB0021EA
:103BE000042001F037FB40F20221082001F032FBF3
:103BF000002101E08C030020092001F02BFB0021B3
:103C00000A2001F027FB01210C2001F023FB0021F9
:103C10000D2001F01FFB00210F2001F01BFB3220C3
:103C200003F018F940F20111072001F013FB3220D4
:103C300003F010F94FF48651102001F00BFB07211F
:103C4000112001F007FB4FF48871122001F002FBF4
:103C50004FF43061132001F0FDFA0021292001F01A
:103C6000F9FA44F210012B2001F0F4FA002150205F
:103C700001F0F0FAEF21512001F0ECFA002152207E
:103C800001F0E8FA40F23F11532001F0E3FA4FF45B
:103C90001C51602001F0DEFA0121612001F0DAFA06
:103CA00000216A2001F0D6FA0021802001F0D2FA2A
:103CB000002100E031E0812001F0CCFA00218220D7
:103CC00001F0C8FA0021832001F0C4FA0021842009
:103CD00001F0C0FA0021852001F0BCFA10219020EB
:103CE00001F0B8FA0021922001F0B4FA01219320EA
:103CF00001F0B0FA4FF48871952001F0ABFA002181
:103D0000972001F0A7FA0021982001F0A3FA40F2D1
:103D10007311072001F09EFA6DE5FE48808849F294
:103D2000313188427DD141F21401E72001F092FA4D
:103D30004FF48071012001F08DFA4FF400710220E0
:103D400001F088FA41F23801032001F083FA40F2D1
:103D50000221082001F07EFA0021092001F07AFA00
:103D600000210A2001F076FA00210C2001F072FAFD
:103D700000210D2001F06EFA00210F2001F06AFAF7
:103D80000021102001F066FA0721112001F062FAEB
:103D90000021122001F05EFA0021132001F05AFAEE
:103DA000C82003F057F841F29061102001F052FA58
:103DB00040F22721112001F04DFA322003F04AF899
:103DC0000C21122001F046FA322003F043F84FF4A0
:103DD0000061132001F03EFA1121292001F03AFA86
:103DE0000B212B2001F036FA322003F033F80021AA
:103DF000202001F02FFA40F23F11212001F02AFA91
:103E00000021302001F026FA4FF48371312001F0B7
:103E100021FA0021322001F01DFA4FF40171352002
:103E200000E064E001F016FA41F20A61362001F088
:103E300011FA40F20771372001F00CFA4FF4837148
:103E4000382001F007FA40F20771392001F002FA38
:103E500040F202413C2001F0FDF940F60F413D20C7
:103E600001F0F8F90021502001F0F4F9EF21512080
:103E700001F0F0F90021522001F0ECF940F23F117D
:103E8000532001F0E7F94FF41C51602001F0E2F9F2
:103E90000121612001F0DEF900216A2001F0DAF948
:103EA0000021802001F0D6F90021812001F0D2F913
:103EB0000021822001F0CEF90021832001F0CAF90F
:103EC0000021842001F0C6F90021852001F0C2F90B
:103ED0001021902001F0BEF94FF4C061922001F052
:103EE000B9F940F23311072001F0B4F983E48948AD
:103EF000808845F2084188427ED14FF480710120CC
:103F000001F0A8F94FF4E061022001F0A3F941F2B9
:103F10003001032001F09EF90021042001F09AF9FC
:103F200040F20721082001F095F90021092001F055
:103F300091F900210A2001F08DF900210C2001F0F7
:103F400089F900210D2001F085F900210F2001F0F1
:103F500081F9142002F07EFF41F2B061102001F0DF
:103F600079F90121112001F075F90121172001F0E3
:103F700071F94FF49C71122001F06CF94FF400615B
:103F8000132001F067F90921292001F063F90921C3
:103F90002A2001F05FF90021A42001F05BF9002143
:103FA000502001F057F9EF21512001F053F9002181
:103FB000522001F04FF940F23F11532001F04AF92D
:103FC0004FF41C51602001F045F90121612001F0FE
:103FD00041F900216A2001F03DF90021802001F023
:103FE00039F90021812001F035F90021822001F00A
:103FF00031F90021832000E023E001F02BF90021BA
:10400000842001F027F90021852001F023F91321F4
:10401000902001F01FF90021922001F01BF90321EB
:10402000932001F017F94FF48871952001F012F9EF
:1040300040F27311072001F00DF9322002F00AFF5F
:10404000B8E43448808841F2055188427ED100218D
:10405000072001F0FFF8322002F0FCFE4FF48E71D1
:10406000122001F0F7F80121A42001F0F3F80F214C
:10407000082001F0EFF808210A2001F0EBF80821F0
:104080000D2001F0E7F840F20771302001F0E2F86E
:104090000721312001F0DEF840F20361322001F007
:1040A000D9F84FF4E061332001F0D4F840F2022156
:1040B000342001F0CFF80221352001F0CBF841F691
:1040C0000F71362001F0C6F840F20771372001F079
:1040D000C1F80021382001F0BDF80021392001F09D
:1040E000B9F840F207713A2001F0B4F800213B2002
:1040F00001F0B0F807213C2001F0ACF800213D2090
:1041000001F0A8F8322002F0A5FE0121072001F0FD
:10411000A1F801E08C0300200121172001F09AF89A
:10412000322002F097FE4FF4BD51102001F092F8BA
:1041300040F21721112001F08DF84FF48F711220F9
:1041400001F088F84FF47061132000E097E001F06F
:1041500081F800212A2001F07DF80A21292001F0B0
:1041600079F84FF49F71122001F074F8002150206B
:1041700001F070F8EF21512001F06CF8002152207D
:1041800001F068F840F23F11532001F063F84FF45A
:104190001C51602001F05EF80121612001F05AF805
:1041A00000216A2001F056F80021802001F052F829
:1041B0000021812001F04EF80021822001F04AF810
:1041C0000021832001F046F80021842001F042F80C
:1041D0000021852001F03EF81321902001F03AF8EB
:1041E0004FF44071922001F035F80521932001F041
:1041F00031F80021952001F02DF80021972001F0E1
:1042000029F80021982001F025F84FF48071012051
:1042100001F020F84FF4E061022001F01BF841F2B8
:104220003801032001F016F80021042001F012F8F3
:1042300000210C2001F00EF800210F2001F00AF8F7
:104240000021202001F006F80021212001F002F8D1
:104250002121072000F0FEFF142002F0FBFD612168
:10426000072000F0F7FF142002F0F4FD40F2731174
:10427000072000F0EFFF142002F0ECFD95E4FE486B
:1042800080884BF2055188427ED10021084600F01B
:10429000E1FF0021084600F0DDFF0021084600F0A4
:1042A000D9FF0021084600F0D5FF0121A42000F02D
:1042B000D1FF142002F0CEFD4FF41C51602000F01D
:1042C000C9FF40F20221082000F0C4FF4FF405713D
:1042D000302000F0BFFF43F21571312000F0BAFF2B
:1042E00040F20461322000F0B5FF40F61661332041
:1042F00000F0B0FF42F21121342000F0ABFF4FF488
:10430000A851352000F0A6FF48F20751362000F0F2
:10431000A1FF41F20741372000F09CFF41F2034129
:10432000382000F097FF2021392000F093FF1A2158
:10433000902000F08FFF0021102000F08BFF07215C
:10434000112000F087FF0021122000F083FF0021E0
:10435000132000F07FFF142002F07CFD4FF4E66193
:10436000102000F077FF40F23711112000F072FFAB
:10437000142002F06FFD4FF4DC71122000F06AFF90
:10438000142002F067FD00E083E04FF47061132019
:1043900000F060FF80212A2000F05CFF48212920E6
:1043A00000F058FF142002F055FD4FF480710120F9
:1043B00000F050FF4FF4E061022000F04BFF41F2AB
:1043C0003801032000F046FF40F20221082000F0EF
:1043D00041FF00210A2000F03DFF00210C2000F0E9
:1043E00039FF00210D2000F035FF30210E2000F0B4
:1043F00031FF0021502000F02DFFEF21512000F06F
:1044000029FF0021522000F025FF40F23F115320E8
:1044100000F020FF4FF41C51602000F01BFF012131
:10442000612000F017FF00216A2000F013FF112126
:10443000902000F00FFF4FF4C061922000F00AFFBF
:1044400040F20241932000F005FF0221942000F089
:1044500001FF142002F0FEFC0121072000F0FAFE0B
:10446000142002F0F7FC6121072000F0F3FE40F277
:104470007311072000F0EEFE0021202000F0EAFE7C
:104480000021212000F0E6FE2221002000F0E2FEC3
:1044900011E3794880884CF2055188427ED1002191
:1044A000084600F0D7FE0021084600F0D3FE142095
:1044B00002F0D0FC0021084600F0CCFE00210846A6
:1044C00000F0C8FE0021084600F0C4FE00210846A6
:1044D00000F0C0FE0121A42000F0BCFE142002F078
:1044E000B9FC4FF41C51602000F0B4FE40F6060108
:1044F000082000F0AFFE40F20371302000F0AAFE69
:104500000121312000F0A6FE0421322000F0A2FE9D
:104510004FF48171332000F09DFE4FF44071342040
:1045200000F098FE40F20311352000F093FE1F21A9
:10453000362000F08FFE40F20371372000F08AFE33
:104540000121382000F086FE0421392000F082FE8F
:104550001521902000F07EFE4FF48261102000F0C3
:1045600079FE40F24721112000F074FE4FF4DE7115
:10457000122000F06FFE4FF46061132000F06AFE1D
:10458000782002F067FC4FF48071012000F062FE99
:104590004FF40071022000F05DFE00E050E041F2B7
:1045A0003001032000F056FE08210A2000F052FEE0
:1045B00000210C2000F04EFE20210E2000F04AFECB
:1045C00000210F2000F046FE0021202000F042FED6
:1045D0000021212000F03EFE3D212A2000F03AFE7D
:1045E000142002F037FC2D21292000F033FE002199
:1045F000502000F02FFE4DF2EF01512000F02AFE76
:104600000021522000F026FE40F23F11532000F01E
:1046100021FE0021612000F01DFE00216A2000F033
:1046200019FE4FF44071922000F014FE05219320F2
:1046300000F010FE4FF48071072000F00BFE3AE20C
:104640000D48808844F2315188427CD101210020FC
:1046500000F000FE0A2002F0FDFB41F2286110206C
:1046600000F0F8FD0E21122000F0F4FD40F6392193
:10467000132000F0EFFD01E08C0300200A2002F07F
:10468000E9FB4021112000F0E5FD5021152000F04C
:10469000E1FD0A2002F0DEFB1E21122000F0DAFD0F
:1046A0000A2002F0D7FB4FF4B151102000F0D2FDE8
:1046B00042F63921132000F0CDFD0A2002F0CAFB9A
:1046C0004FF48071012000F0C5FD4FF440710220CD
:1046D00000F0C0FD41F23801032000F0BBFD40F2C4
:1046E0000221082000F0B6FD08210A2000F0B2FDEA
:1046F0000021302000F0AEFD40F20241312000F0F8
:10470000A9FD4FF48371322000F0A4FD40F2035163
:10471000332000F09FFD4FF48271342000F09AFDA9
:1047200040F20131352000F095FD40F2077136204E
:1047300000F090FD40F20531372000F08BFD4FF482
:104740000271382000E040E000F084FD40F60B717B
:10475000392000F07FFD0221412000F07BFD4FF465
:104760001C51602000F076FD0121612000F072FDF7
:104770004FF40471902000F06DFD4FF4857192208C
:1047800000F068FD0421932000F064FD4FF4807177
:10479000A02000F05FFD0121072000F05BFD21213A
:1047A000072000F057FD2321072000F053FD33219F
:1047B000072000F04FFD40F23311072000F04AFDC2
:1047C0000021A02000F046FD75E1C148808844F238
:1047D000355188427ED13021152000F03BFD10215B
:1047E0009A2000F037FD2021112000F033FD43F224
:1047F0002841102000F02EFD0221122000F02AFD99
:1048000041F23801132000F025FD282002F022FBA0
:104810001221084600F01EFD282002F01BFB43F287
:104820002041102000F016FD43F23801132000F063
:1048300011FD462002F00EFB0021302000F00AFDA1
:1048400040F20241312000F005FD40F207313220F4
:1048500000F000FD4FF44171332000F0FBFC042117
:10486000342000F0F7FC40F20141352000F0F2FC6A
:1048700040F20771362000F0EDFC40F205313720A0
:1048800000F0E8FC4FF4C261382000F0E3FC4FF484
:10489000C261392000F0DEFC4FF48071012000F08D
:1048A000D9FC4FF44071022000F0D4FC41F23001F9
:1048B000032000F0CFFC40F60801082000F0CAFCFD
:1048C00008210A2000F0C6FC4FF41C51602000F0C3
:1048D000C1FC00E031E00121612000F0BBFC4FF49D
:1048E0009F71902000F0B6FC4FF48071922000F090
:1048F000B1FC4FF48071932000F0ACFC4FF44051B8
:10490000A02000F0A7FC1021A32000F0A3FC0121AF
:10491000072000F09FFC2121072000F09BFC2321B1
:10492000072000F097FC3321072000F093FC40F2B1
:104930003311072000F08EFCBDE06548808841F609
:1049400063118842F8D1E22000F074FC1D2000F0D1
:104950006BFC022000F068FC042000F065FC642081
:1049600002F09EFAE02000F065FC012000F05CFC03
:104970000A2002F06FFAE02000F05CFC032000F057
:1049800053FC0C2002F066FA012000F053FC0A20D0
:1049900002F060FAE62000F04DFC2F2000F044FC0D
:1049A000FF2000F041FCFF2000F03EFCB02000F0B2
:1049B00041FC202000F038FC002000F035FC0320F2
:1049C00000F032FC40F21F3000F02EFC012000F01D
:1049D0002BFC40F2DF1000F027FC002000F024FC4C
:1049E000B42000F027FC042000F01EFC40F21F4021
:1049F00000F01AFC002000F017FC2E2000F014FC40
:104A0000002000F011FC002000F00EFC002000F05F
:104A10000BFC002000F008FCB62000F00BFC02208C
:104A200000F002FC4FF4037000F0FEFB002000F0E9
:104A3000FBFB172000F0F8FB152000F0F5FB002031
:104A400000F0F2FB002000F0EFFBF02000F0F2FBA2
:104A5000032000F0E9FB292000F0ECFBD02000F05F
:104A6000E9FB002000F0E0FBBE2000F0E3FB0520A6
:104A700000F0DAFBFE2000F0D7FB012000F0D4FBB1
:104A8000002000F0D1FB002000F0CEFB002000F061
:104A9000CBFBB82000F0CEFB032000F0C5FB0120CB
:104AA00000F0C2FBBA2000F0C5FB012000F0BCFB07
:104AB000642000F033F80020FCF758FA0120054983
:104AC00008604FF6FF70FCF71BFA1FB000BD000036
:104AD0008C0300208081214210B50246012000E0B5
:104AE00050430B1EA1F10104E1B2F9D110BD000049
:104AF00008B5034800880090BDF8000008BD00001C
:104B00000008006C10B50446204600F093FB052019
:104B100002F0C6F9FFF7ECFF10BD00002DE9F047E9
:104B20000446BE2000F086FB052000F07DFB2046F9
:104B300006F0C4FB07464FF066320C4B06F0D2FB82
:104B4000054606F077FB1FFA80F9484600F06CFB3B
:104B5000012000F069FBFF2000F066FB002000F060
:104B600063FB002000F060FBBDE8F0876666044050
:104B700070B5044600230026B748807901280BD180
:104B8000B548808846F60401884205D0B24880883E
:104B900041F66311884208D1AF488079F0B9AE4838
:104BA000808841F66311884218D1082C15D2DFE8BD
:104BB00004F00406080A0C0E101206240DE0072467
:104BC0000BE0042409E0052407E0012405E00024AB
:104BD00003E0032401E0022400BF00BF9E48808858
:104BE00049F24131884217D09B48808846F604013B
:104BF000884211D09848808845F2103188420BD005
:104C00009548808845F21051884205D092488088A6
:104C100041F6631188427DD1082C1CD2DFE804F0F4
:104C20000406090C0F12151800BF14E043F08003AE
:104C300011E043F040030EE043F0C0030BE043F00B
:104C4000200308E043F0600305E043F0A00302E026
:104C500043F0E00300BF00BF7F48808845F2105159
:104C6000884202D14FF4585600E036267A488088B0
:104C700045F2103188420DD07748808845F21051B6
:104C8000884207D07448808841F66311884201D079
:104C900043F008037048808846F60401884201D139
:104CA00043F002031946304600F0D4FA6A4880887F
:104CB00041F6631188421DD003F0200068B16648B8
:104CC000008865494988884214DA63480588408825
:104CD00061490880084645800CE05F4800885E49CD
:104CE0004988884206DD5C48058840885A49088022
:104CF000084645805848808845F21051884254D172
:104D00005549488900F096FA002000F08DFA524982
:104D1000498900E078E0491C88B200F08BFA002055
:104D200000F082FA4C494989891C88B200F082FA65
:104D300049490988491EC1F30F2000F075FA464918
:104D40004989C91C88B200F075FA43490978491E9F
:104D5000C8B200F069FA4049888900F06BFA002077
:104D600000F062FA3C498989491C88B200F062FA75
:104D7000002000F059FA38498989891C88B200F06E
:104D800059FA35494988491EC1F30F2000F04CFA01
:104D900031498989C91C88B200F04CFA2E498978BA
:104DA000491EC8B200F040FA55E02B49488900F08E
:104DB00041FA002000F038FA002000F035FA2649C8
:104DC0000988491EC1F30F2000F02EFA2249097804
:104DD000491EC8B200F028FA1F49888900F02AFA53
:104DE000002000F021FA002000F01EFA1A4949883C
:104DF000491EC1F30F2000F017FA17498978491EA0
:104E0000C8B200F011FA26E0082C1CD2DFE804F04A
:104E100004070A0D0F12151843F0300313E043F096
:104E2000100310E043F020030DE000BF0BE043F05F
:104E3000380308E043F0280305E043F0180302E0DC
:104E400043F0080300BF00BF032643F48053194614
:104E5000304600F0FFF970BD8C03002010B503460A
:104E60000C466748808849F24131884205D0644841
:104E7000808845F21031884214D16149488900F098
:104E8000D9F9181200F0D0F9D8B200F0CDF95C4988
:104E9000888900F0CFF9201200F0C6F9E0B200F0E6
:104EA000C3F9ABE05648808846F6040188421DD11C
:104EB00053488079012804D151480088401EC01A07
:104EC00083B24F49488900F0B5F9181200F0ACF9E7
:104ED000D8B200F0A9F94A49888900F0ABF920124C
:104EE00000F0A2F9E0B200F09FF987E04448808822
:104EF00041F66311884247D141488079A8B94048BA
:104F00000088401EC01A83B23D49488900F092F9DA
:104F1000002000F089F9002000F086F9181200F056
:104F200083F9D8B200F080F916E03549488900F0DD
:104F300081F9181200F078F9D8B200F075F930490B
:104F40000988491EC1F30F2000F06EF92C49097839
:104F5000491EC8B200F068F92949888900F06AF949
:104F6000201200F061F9E0B200F05EF924494988AE
:104F7000491EC1F30F2000F057F921498978491ED5
:104F8000C8B200F051F939E01D48808845F210514F
:104F9000884220D11A49488900F04CF9181200F0D3
:104FA00043F917494989491C88B200F043F9D8B23E
:104FB00000F03AF91249888900F03CF9201200F01B
:104FC00033F90F498989491C88B200F033F9E0B2FE
:104FD00000F02AF912E00A488079012804D1084833
:104FE0000088401EC01A83B205494889194600F05E
:104FF00031F903498889214600F02CF910BD0000E1
:105000008C0300202DE9F84F80460E4617461C46BB
:10501000B3462046E31704EB5373DB1021464FEAF7
:10502000E47C04EB5C7C4FEAEC0CA4EBCC0CBCF114
:10503000000F02D04FF0010C01E04FF0000C634470
:10504000224604EBD27C4FEA6C0C03FB0CF3DBB280
:105050000093A7F12000C7B2002556E00C2C07D121
:1050600007EB47002B4901EB800010F8059013E097
:10507000102C05D1284800EB071010F805900BE024
:10508000182C07D107EBC700244901EB800010F86A
:10509000059001E0BDE8F88F4FF0000A2FE009F01D
:1050A000800030B11E48028831464046FCF73EF889
:1050B00007E00A9828B91B48028831464046FCF7A9
:1050C00035F84FEA49604FEA1069701C86B21648FD
:1050D0004088B04200DCDDE7A6EB0B00A0420AD11D
:1050E0005E4608F101001FFA80F80F48008840452D
:1050F00000DCCFE706E00AF1010000F0FF0ABAF198
:10510000080FCCDB00BF681CC5B200988542A5DB48
:1051100000BFBFE7C6C000083AC500082ACB000898
:105120004E000020500000208C0300202DE9FF4F8E
:1051300081B0074691461E460E9D4FF0000A00249E
:1051400039E0301B401EC1B20A20FFF7C5FCB9FB95
:10515000F0F00A21B0FBF1F201FB1208BAF1000FE6
:1051600016D1701EA04213DDB8F1000F0ED1002041
:10517000AB4605EBDB71491001FB0471009088B26E
:105180002B4620220299FFF73DFF12E04FF0010A63
:105190000020AB4605EBDB71491001FB0471009068
:1051A00088B208F13001CAB22B460299FFF72AFFF4
:1051B00000BF601CC4B2B442C3DB05B0BDE8F08FD1
:1051C0002DE9F84704460D4690469946DDE9096702
:1051D00004F0FF0A08EB04001FFA80F809EB050051
:1051E0001FFA80F916E0444502DB5446A81985B23F
:1051F0004D4500DB14E0002000903A783346294604
:105200002046FFF7FFFE304606EBD07104EB61014C
:105210008CB27F1C38787E2802DC38782028E2DACD
:1052200000BFBDE8F8870000014908807047000012
:105230000008006C0149088070470000FE07006C00
:105240000248008902490880704700008C03002052
:10525000FE07006C024A1080921C1180704700000B
:10526000FE07006C2DE9FC4104460D4616466B46D0
:1052700006223B21682000F042FA0746BFB99DF89C
:1052800001009DF8001040EA012000B220809DF846
:1052900003009DF8021040EA012000B228809DF82A
:1052A00005009DF8041040EA012000B23080384625
:1052B000BDE8FC812DE9FC4104460D4616466B46CF
:1052C00006224321682000F01AFA0746BFB99DF86C
:1052D00001009DF8001040EA012000B220809DF8F6
:1052E00003009DF8021040EA012000B228809DF8DA
:1052F00005009DF8041040EA012000B230803846D5
:10530000BDE8FC812DE9F84F6B460222412168205F
:1053100000F0F5F99DF801009DF8001040EA012029
:105320000FFA80FA504605F0B2FF804600220B4B80
:1053300005F028FE06460A4A0A4B05F073FD0446AE
:1053400005F03EFD83460849584606F0D1FC044668
:1053500006F032FC00B2BDE8F88F00000040754056
:10536000A4703D0AD74342400000C84210B5002057
:105370000E4908600E48006820F470400C4908602F
:105380000846006840F44050086000200949C1F810
:10539000AC0100F011F801200449086000F00CF89D
:1053A00000200449C1F8A80110BD0000A8812142D5
:1053B000040C01400080214210B5022001F070FD74
:1053C00010BD000008B50121082000F0D5FA4FF407
:1053D0004060ADF8000010208DF8030003208DF828
:1053E000020069460448FBF7D4FB4FF440610248D1
:1053F000FBF7ABFC08BD0000000C014010B500201D
:105400000E4908600E48006820F470400C4908609E
:105410000846006840F44050086001200949C1F87E
:10542000AC01FFF7C9FF012004490860FFF7C4FF82
:1054300000200449C1F8A80110BD0000A881214244
:10544000040C01400080214270B505460024164836
:10545000006820F47040144908600846006840F471
:1054600000400860002614E0002010490860FFF7A3
:10547000A3FF01200E49C1F8A8016006040E0B48E5
:105480007C38006808B1601CC4B2FFF795FF701C3F
:10549000C6B2082EE8DB15B9FFF7B0FF01E0FFF751
:1054A00065FF204670BD0000040C0140A881214228
:1054B0000080214270B504461248006820F4704014
:1054C000104908600846006840F440500860002019
:1054D0000D490860002512E0E0090B49091D08602C
:1054E0006006040E01200949C1F8A801FFF764FF16
:1054F000002005490860FFF75FFF681CC5B2082D52
:10550000EADB70BD040C0140A881214200802142E9
:1055100010B50E48006820F470400C490860084639
:10552000006840F4405008600120094908600949BA
:10553000C1F8A801FFF740FF002005490860FFF708
:105540003BFF00200349C1F8A80110BD040C014035
:10555000AC8121420080214210B50E48006820F441
:1055600070400C4908600846006840F440500860EC
:105570000020094908600949C1F8AC01FFF71CFF88
:105580000120054908600549C1F8AC01FFF714FF87
:1055900010BD0000040C0140A8812142008021427E
:1055A00010B500241448006820F4704012490860C7
:1055B0000846006840F40040086001200F49086078
:1055C000FFF7FAFE01200E49C1F8A801FFF7F4FE2B
:1055D00007E0601CC4B2FA2C03DDFFF7BDFF012019
:1055E00010BD0648803800680028F2D10349091F21
:1055F000086000BFF4E70000040C0140AC812142C8
:105600000080214238B50121084600F0B5F901219A
:10561000042000F0B1F94FF40040ADF80000102074
:105620008DF8030003208DF8020069462248FBF73D
:10563000B0FA01212148FBF737FB00202049086020
:10564000FFF7C0FE80216B2000F0DDF8642001F040
:1056500001FC00216B2000F0D6F8032000F091F847
:10566000002000F086F8322000F0B0F80021382049
:1056700000F0C9F800216A2000F0C5F800212320BD
:1056800000F0C1F88021372000F0BDF8752000F04F
:1056900019F80446682C0BD101216B2000F0B3F8F7
:1056A00000216C2000F0AFF8322000F08FF801E00C
:1056B000012038BD0020FCE7000801400002300056
:1056C000BC01214270B50446FFF722FFD020FFF74E
:1056D000F1FEFFF765FF2046FFF7ECFEFFF760FFE6
:1056E000FFF716FFD120FFF7E5FEFFF759FF002077
:1056F000FFF7AAFE0546FFF72FFF284670BD2DE9EC
:10570000F04106460F4614461D46FFF701FF0021F3
:1057100041EA4601C8B2FFF7CDFEFFF741FF20B1D5
:10572000FFF71AFF0120BDE8F0813846FFF7C2FEFF
:10573000FFF736FFFFF7ECFE012101EB4601C8B28F
:10574000FFF7B8FEFFF72CFF0DE0012C04D100207D
:10575000FFF77AFE287003E00120FFF775FE28703E
:10576000601EC4B26D1C002CEFD1FFF7F5FE0020C7
:10577000D9E710B50446E006010E1C2000F043F8FE
:1057800010BD10B50446E006010E1B2000F03BF8EA
:1057900010BD70B504460025BC2C01DB012510E0CE
:1057A000622C01DB02250CE02A2C01DB032508E03A
:1057B000142C01DB042504E00A2C01DB052500E0A4
:1057C000062529461A2000F01EF870BD70B5044663
:1057D000B4F57A7F01DD4FF47A74042C00DA0424E6
:1057E0004FF47A7090FBF4F0401EC5B229461920A0
:1057F00000F009F80546264604EBD671C1F34F00C8
:10580000FFF7C7FF70BD70B505460C46FFF780FE79
:10581000D020FFF74FFEFFF7C3FE18B1FFF79CFE45
:10582000012070BD2846FFF745FEFFF7B9FE204670
:10583000FFF740FEFFF7B4FE18B1FFF78DFE012021
:10584000EFE7FFF789FE0020EBE72DE9F041054681
:105850000E4617469846FFF75BFE002141EA4501D8
:10586000C8B2FFF727FEFFF79BFE20B1FFF774FEDB
:105870000120BDE8F0813046FFF71CFEFFF790FEE7
:1058800000240CE018F80400FFF714FEFFF788FE70
:1058900018B1FFF761FE0120EBE7601CC4B2BC4207
:1058A000F0DBFFF759FE0020E3E700BFFEE770479B
:1058B00070B5002100230F22C47804B3154C24686E
:1058C00004F4E064C4F5E064210AC1F10403CA40B1
:1058D000447804FA03F184781440214309010E4C02
:1058E0000678A155047804F01F050124AC40057822
:1058F0006D11AD0005F1E025C5F8004109E004781F
:1059000004F01F050124AC40044D0678761145F8DB
:10591000264070BD0CED00E000E400E080E100E016
:1059200002490143024A1160704700000000FA0575
:105930000CED00E07047000029B1064A52690243AD
:10594000044B5A6104E0034A52698243014B5A6195
:10595000704700000010024029B1064AD269024394
:10596000044BDA6104E0034AD2698243014BDA61F5
:10597000704700000010024029B1064A92690243B4
:10598000044B9A6104E0034A92698243014B9A6195
:10599000704700000010024030B5002100220024B2
:1059A00000232D4D6D6805F00C0121B1042905D0AF
:1059B000082923D105E0294D056022E0274D056027
:1059C0001FE0254D6D6805F47012234D6D6805F4D8
:1059D0008034022505EB92421CB9214D55430560E8
:1059E0000BE01D4D6D6805F400351DB11C4D554390
:1059F000056002E0194D5543056002E0174D056052
:105A000000BF00BF144D6D6805F0F0010909154D88
:105A10006B5C0568DD4045600F4D6D6805F4E06125
:105A2000090A104D6B5C4568DD4085600A4D6D6864
:105A300005F46051C90A0B4D6B5C4568DD40C560DB
:105A4000054D6D6805F44041890B074D6B5CC568D9
:105A5000B5FBF3F5056130BD0010024000127A007D
:105A600000093D009E000020AE000020F8B54FF672
:105A7000FF70AF4D00902D786D1EAE4E36F815506C
:105A80000A35ABB2AA4D2D786D1EAB4E36F81550C7
:105A90000A35AAB2A64D2D786D1EA64E36F8151001
:105AA000A34D2D786D1EA44E36F81500FBF7FCFBB8
:105AB000A2480078002838D19D480078401EC4B222
:105AC0000DE0601E9C4931F8100021F81400601EA2
:105AD000984931F8100021F81400601EC4B2002C5F
